:0400000080310A2819
:100008007E1480318F31A8277E10090080310C289A
:10001800FA01FB0141308400003085001B308E312D
:10002800B1268031203084000130850050308E3177
:10003800B1267E1020008031212820308600013032
:100048008700A43084000030850030302000BD00D7
:1000580016001A00BD0B2C2841308600003087009E
:10006800D6308400003085001030BD0016001A001C
:10007800BD0B3A282100D401D501E601E701E801CA
:10008800E901A001A101A201A3018731E427803180
:100098002100E801E9016908803A2000BD008030AC
:1000A8003D02031D5A281030210068020318F92B5D
:1000B800210068086904031966280C306806690479
:1000C800031D6828D501D50A043068066904031D94
:1000D8006F28D401D40A54080319802820008C12F0
:1000E8008530890B7528000020000C168530890B97
:1000F8007B2800002100D40155080319912820000D
:100108000C128530890B8628000020008C1685305B
:10011800890B8C2800002100D5016908F3006808C4
:10012800F2008F315727803121006808D63E8600BB
:1001380087010103031DA7286908F3006808F20076
:10014800F401F40AAD2821006908F3006808F200F8
:10015800F40184310B248031210056082000BD00B1
:10016800BE013D082100E60520003E082100E70504
:1001780057082000BD00BE01BD35BE0D3D08210059
:10018800E60520003E082100E70558082000BD00CC
:10019800BE01BD35BE0DBD35BE0D3D082100E605CD
:1001A80020003E082100E70559082000BD00BE01D7
:1001B800BD35BE0DBD35BE0DBD35BE0D3D0821009A
:1001C800E60520003E082100E7055A082000BD008A
:1001D800BE01BD0EBE0EF030BE053D080F39BE048F
:1001E800F030BD053D082100E60520003E0821004D
:1001F800E7055B082000BD00BE010530BD35BE0D1A
:10020800890B02293D082100E60520003E0821004F
:10021800E7055C082000BD00BE010630BD35BE0DF7
:10022800890B12293D082100E60520003E0821001F
:10023800E7055D082000BD00BE010730BD35BE0DD5
:10024800890B22293D082100E60520003E082100EF
:10025800E7055E082000BD00BE013D08BE00BD01E7
:100268003D082100E60520003E082100E7055F085B
:100278002000BD00BE010930BD35BE0D890B4029E7
:100288003D082100E60520003E082100E70560083A
:100298002000BD00BE010A30BD35BE0D890B5029B6
:1002A8003D082100E60520003E082100E705610819
:1002B8002000BD00BE010B30BD35BE0D890B602985
:1002C8003D082100E60520003E082100E7056208F8
:1002D8002000BD00BE013D0EF039BE00BD013D0845
:1002E8002100E60520003E082100E70563082000FC
:1002F800BD00BE010D30BD35BE0D890B7F293D08FF
:100308002100E60520003E082100E70564082000DA
:10031800BD00BE010E30BD35BE0D890B8F293D08CD
:100328002100E60520003E082100E70565082000B9
:10033800BD00BE010F30BD35BE0D890B9F293D089C
:100348002100E60520003E082100E70556082000A8
:10035800BD00BE013D082100E60420003E08210042
:10036800E70457082000BD00BE01BD35BE0D3D089D
:100378002100E60420003E082100E7045808200078
:10038800BD00BE01BD35BE0DBD35BE0D3D08210009
:10039800E60420003E082100E70459082000BD00BB
:1003A800BE01BD35BE0DBD35BE0DBD35BE0D3D080A
:1003B8002100E60420003E082100E7045A08200036
:1003C800BD00BE01BD0EBE0EF030BE053D080F39A2
:1003D800BE04F030BD053D082100E60420003E08BB
:1003E8002100E7045B082000BD00BE010530BD35D3
:1003F800BE0D890BFB293D082100E60420003E08BC
:100408002100E7045C082000BD00BE010630BD35B0
:10041800BE0D890B0B2A3D082100E60420003E088A
:100428002100E7045D082000BD00BE010730BD358E
:10043800BE0D890B1B2A3D082100E60420003E085A
:100448002100E7045E082000BD00BE013D08BE0093
:10045800BD013D082100E60420003E082100E70414
:100468005F082000BD00BE010930BD35BE0D890BF7
:10047800392A3D082100E60420003E082100E7044F
:1004880060082000BD00BE010A30BD35BE0D890BD5
:10049800492A3D082100E60420003E082100E7041F
:1004A80061082000BD00BE010B30BD35BE0D890BB3
:1004B800592A3D082100E60420003E082100E704EF
:1004C80062082000BD00BE013D0EF039BE00BD012E
:1004D8003D082100E60420003E082100E7046308E7
:1004E8002000BD00BE010D30BD35BE0D890B782A38
:1004F8003D082100E60420003E082100E7046408C6
:100508002000BD00BE010E30BD35BE0D890B882A06
:100518003D082100E60420003E082100E7046508A4
:100528002000BD00BE010F30BD35BE0D890B982AD5
:100538003D082100E60420003E082100E7049D1440
:100548009D18A42A03302000BD003D08F2002100B8
:1005580068088E31B7268031A43E860087012100C5
:100568001C082000BE00BF013E08BF00BE012100DC
:100578001B0820003E07A0003F0803183F0AA100FF
:100588008E31F926803120002008C03F2108C13F64
:100598002208C23F0330BD003D08F2002100680870
:1005A8008E31B7268031A43E860087012100690874
:1005B800F3006808F2000330F4000030F5008E31D3
:1005C800DE268031730885007208840000308407B5
:1005D8009030853D003F2000B000013FB100023F50
:1005E800B20021006908F3006808F2000330F40043
:1005F8000030F5008E31DE268031730885007208E0
:100608008400303084079030853D003F2000A000F2
:10061800013FA100023FA2000330BE003E08F200E5
:10062800210068088E31B7268031A43E84008501F8
:10063800003F2000A300013FA400023FA50086312F
:10064800CC26803120002008B3002108B4002208FD
:10065800B5008531D625803120003008C03F3108EB
:10066800C13F3208C23F0330BD003D08F2002100FF
:1006780068088E31B7268031A43E86008701403F46
:100688002000A000413FA100423FA2000030A3008B
:100698000030A4000030A5008F311B2780310318DB
:1006A800682B03302000BD003D08F20021006808D7
:1006B8008E31B7268031A43E860087010030C03FC6
:1006C8000030C13F0030C23FC0302000A0007F3062
:1006D800A1004430A2000330BD003D08F200210013
:1006E80068088E31B7268031A43E86008701403FD6
:1006F8002000A300413FA400423FA5008F311B27E3
:10070800803103189A2B03302000BD003D08F20009
:10071800210068088E31B7268031A43E8600870103
:10072800C030C03F7F30C13F4430C23F033020005B
:10073800BD003D08F200210068088E31B7268031DF
:10074800A43E86008701403F2000A000413FA10051
:10075800423FA2000030A300FA30A4004330A500B5
:100768008F311B278031031CC12B21006808D63E1E
:10077800860087018101810AE62B03302000BD0035
:100788003D08F200210068088E31B7268031A43E6A
:1007980086008701403F2000A000413FA100423F62
:1007A800A2000030A300FA30A4004330A5008F3126
:1007B8001B2780310318E62B21006808D63E8600E7
:1007C80087018101640001302100E8070030E93D1C
:1007D8006908803A2000BD0080303D02031DF72BD8
:1007E800103021006802031C5C28210066082000E4
:1007F800BD003D082200D100210067082000BD008F
:100808003D082200D0002100E601E7014C28C62D52
:10081800740803191B2C21008C170C170E148E104A
:1008280020008E1021000E1120000E150800210056
:100838008C170C170E148E1420008E1021000E1524
:1008480020000E11080074080319362C21000C171B
:100858000E140E158C1320008C1721008E1020000A
:100868008E10080021008C1720008C1321000C1713
:100878000E148E1420008E1021000E150800740826
:100888000319522C21000C170E140E158C1320007E
:100898008C1321008E1020008E14080021008C1764
:1008A80020008C1321000C170E148E1420008E10BB
:1008B80021000E150800740803196E2C21000E146F
:1008C8008E140E158C1320008C1321000C1320009D
:1008D8000C17080021008C1720008C1321000C171E
:1008E80020000C1321000E148E140E150800740835
:1008F80003198A2C21000C178E140E158C13200056
:100908008C1321000E1020000E14080021008C17F3
:1009180020008C1321000C170E1420000E1021004B
:100928008E140E15080074080319A62C21000C1744
:100938008E140E158C1320008C1721000E10200029
:100948000E10080021008C1720008C1321000C17B2
:100958000E1420000E1021008E140E1508007408C5
:100968000319C22C21008C170E148E140C132000AE
:100978000C1321000E1120000E15080021008C1701
:100988000C1720000C1321000E148E140E152000D5
:100998000E11080074080319DD2C21008C170E14A1
:1009A8008E140C1320000C1721000E1120000E11BC
:1009B800080021008C170C1720000C1321000E14BE
:1009C8008E140E1520000E11080074080319F82C57
:1009D80021000E148E140E158C1320008C17210084
:1009E8000C1320000C13080021008C1720008C1316
:1009F80021000C1720000C1321000E148E140E1564
:100A0800080074080319142D21008C178E140E1574
:100A18000C1320000C1721000E1020000E100800E7
:100A280021008C170C1720000C1321000E14200035
:100A38000E1021008E140E15080074080319302DAD
:100A480021008C170C170E150E1020000E14210013
:100A58008E1020008E10080021008C170C170E1421
:100A680020000E1021008E1420008E1021000E157B
:100A78000800740803194C2D21008C170C178E14CC
:100A88000E1020000E1021000E1120000E15080077
:100A980021008C170C170E1420000E1021008E1444
:100AA8000E1520000E11080074080319672D210087
:100AB8008C170C170E148E1020008E1421000E11A6
:100AC80020000E11080021008C170C170E148E142C
:100AD80020008E1021000E1520000E110800740849
:100AE8000319822D21008C170C178E140E1020006C
:100AF8000E1421000E1120000E11080021008C1781
:100B08000C170E1420000E1021008E140E15200054
:100B18000E110800740803199D2D21008C178E14DE
:100B28000E150C1320000C1321000E1020000E14BB
:100B3800080021008C170C1720000C1321000E143C
:100B480020000E1021008E140E15080074080319D9
:100B5800B92D21008C170C170E150E1020000E1041
:100B680021008E1020008E14080021008C170C170D
:100B78000E1420000E1021008E1420008E1021006B
:100B88000E1508007308003A0319CB2DD52D7208ED
:100B98008400103004020318080088310435003E30
:100BA8008200080020003008B6003108B70032087B
:100BB800B8000310370D380DB9003908BC003308E8
:100BC800B6003408B7003508B8000310370D380DE3
:100BD800B9003908BB003C080319FE2D3B083C024C
:100BE8000318052E3C03FF3A3B07B60019303602BE
:100BF800031C052E3308B0003408B1003508B200D4
:100C080008003B08031908003C083B020318142E8F
:100C18003B03FF3A3C07B6001930360203180800B8
:100C28000630B6003608BA00B21BBA17B51B3A1719
:100C3800B117FF30B005FF30B1050030B205B41769
:100C4800FF30B305FF30B4050030B5053B083C0262
:100C58000318502E0130B335B40DB50D890B2F2E66
:100C68000130BB023B083C0603194B2E0130BA0287
:100C78003A08073903194B2E2E2E0130B236B10C23
:100C8800B00C890B422E0130B6003608BC073C0870
:100C98003B060319752E412E3C083B020318752E9E
:100CA8000130B035B10DB20D890B552E0130BC02A3
:100CB8003B083C060319712E0130BA023A0807397D
:100CC8000319712E542E0130B536B40CB30C890BB0
:100CD800682E0130B6003608BB073C083B06031DEA
:100CE800672EBA1F872EFF30B006FF30B106FF30DF
:100CF800B2060130B007003003180130B1070030E8
:100D080003180130B2073A1F992EFF30B306FF309F
:100D1800B406FF30B5060130B307003003180130C0
:100D2800B407003003180130B507BA013008B3071B
:100D38003108B43D3208B53DB51FB42EFF30B306B7
:100D4800FF30B406FF30B5060130B3070030031892
:100D58000130B407003003180130B507BA01BA0AE8
:100D68003308F2003408F3003508F4003C08B600F4
:100D78003608F5003A08B7003708F60087318027AB
:100D880072082000B0007308B1007408B2000800AF
:100D980020002008A6002108A7002208A8000310A8
:100DA800270D280DA9002908AA002A08031DE32EEB
:100DB8000030A0000030A1000030A2000800230885
:100DC800A6002408A7002508A8000310270D280D51
:100DD800A9002908AF002F08031DF92E0030A00034
:100DE8000030A1000030A20008002F087B3EA600BA
:100DF8002608AA072008A6002108A7002208A8009C
:100E08001030A836A70CA60C890B052F2608A900B8
:100E18002908AF002308A6002408A7002508A80071
:100E28001030A836A70CA60C890B152F2608A90088
:100E38002908AF068030A6002608AF05A117A41719
:100E4800FF30A305FF30A4050030A5050030AB0036
:100E58000030AC000030AD000730A6002608AE0018
:100E6800201C3C2F2308AB072408AC3D2508AD3DCA
:100E78000130A236A10CA00C890B3D2F0130A335FF
:100E8800A40DA50D890B432F0130AE02031D342F8D
:100E98000930A6002608AE00201C582F2308AB07EF
:100EA8002408AC3D2508AD3D0130A236A10CA00CAC
:100EB800890B592F0130AD36AC0CAB0C890B5F2F69
:100EC8000130AE02031D502F2B08F2002C08F3004E
:100ED8002D08F4002A08A6002608F5002F08A70008
:100EE8002708F6008731802772082000A0007308C1
:100EF800A1007408A200080075080319882F740857
:100F080073047204031D992F0030F2000030F300BF
:100F18000030F40008000130F7007708F5070130C9
:100F2800F436F30CF20C890B942FFE307405031978
:100F3800B22F8F2F0130F7007708F5070130F2073D
:100F4800003003180130F307003003180130F407AC
:100F58000130F436F30CF20C890BAD2FFF30740519
:100F68000319BF2F9E2F0130F5020130F235F30D22
:100F7800F40D890BBA2FF31BC52F02307502031825
:100F8800B72F7518CD2FFF30F2057F30F305FF30EE
:100F9800F4050310F50C7508F700F801F901103095
:100FA800F735F80DF90D890BD42F7708F204780876
:100FB800F3047908F404760803190800F417080004
:100FC8003830F3007308F400F030210099000F3036
:100FD80023008C003C308D000F3021008C003F3006
:100FE8008D00E0308E009D01E0309E0013309700A8
:100FF80074088E31C82608008431B32C8431CE2C75
:101008008431432C8431272C84317B2C85313D2D30
:101018008531732D8431972C84315F2C85318E2D49
:101028008531AA2D84310C2C8531582D8531212DFF
:101038008531052D8431E92C8F31582F8F31602F60
:101048008F31682F8F31702F8F31682F8F31702F2C
:101058008F31602F8F31582F8F31782F8F31802F1C
:101068008F31882F8F31902F8F31782F8F31802FAC
:081078008F31882F8F31902F7A
:101D6200640080010131890BB22E0034F500F401C8
:101D7200751CBF2E7208F3007308F4070310F20DEE
:101D82000310F50C7508031DB92E74080800F20043
:101D92002400940126309500161472359200FE300C
:101DA20093002100911592150B178B1720009111AA
:101DB200921121008E150E160800F601F701721C11
:101DC200E62E7408F6077508F73D0130F435F50D77
:101DD200890BE72E0130F336F20C890BEC2E7208D8
:101DE2007304031DE02E7708F3007608F200080062
:101DF2002000A501A11F042FA009A109A00A03190F
:101E0200A10AA501A50A2008F2002108F300F401A5
:101E12008E30A3002308F5002508A4002408F6004C
:101E22008731802772082000A0007308A10074087F
:101E3200A20008002000A21F322F2009F60021096B
:101E4200F7002209F800F60A0319F70A0319F80A3B
:101E520000307607A0000030773DA1008030783D49
:101E6200A200A51F482F2309F6002409F70025091F
:101E7200F800F60A0319F70A0319F80A0030760780
:101E8200A3000030773DA4008030783DA50080306B
:101E9200A2068030A50625082202031D0800240898
:101EA2002102031D0800230820020800982F643035
:101EB200840090308500000821009D0008006530F4
:101EC200840090308500000821009D0008006730E2
:101ED200840090308500000821009D0008006630D3
:101EE200840090308500000821009D0008006030C9
:101EF200840090308500000821009D0008006130B8
:101F0200840090308500000821009D0008006330A5
:101F1200840090308500000821009D000800623096
:101F2200840090308500000821009D00080073089D
:101F3200003A03199D2FA72F720884001030040263
:101F42000318080088310435203E82000800200072
:101F5200911DFB2F24001419CD2F941ABC2F54303D
:101F6200F00070082000D30024001108F00070086F
:101F7200F100FB01F42F1108F00020005308860045
:101F82008701700881000130F0007008D30701302A
:101F9200F0007008FB07F42F141CE02F5030F00003
:101FA2007008FA001108F0007008F10014080139F5
:101FB200F000150E01397004031DD72FEA2F161BEE
:101FC200F92F14080139F000150E01397004031DB0
:101FD200E22F7A0886000130870001089100013063
:101FE200F0007008FA072000911124001516FB2F4B
:101FF200200091112000921D080092110800003467
:10200200003400340034003400340034003400342E
:10201200003400340034003400340034003400341E
:10202200003400340034003400340034003400340E
:1020320000340034003400340034003400340034FE
:1020420000340034003400340034003400340034EE
:1020520000340034003400340034003400340034DE
:1020620080343F34003480343F34003480343F3491
:10207200003480343F34003480343F3400348034C0
:102082003F34003480343F34003480343F340034F1
:1020920080343F34003480343F34003480343F3461
:1020A200003480343F34003480343F340034803490
:1020B2003F34003480343F34003480343F340134C0
:0E20C200053409340D34213425342D343534E1
:020000040001F9
:04000E00DCFFFFDF35
:00000001FF
